:020000040000FA
:0300000002007388
:100013000202FC00000080FB1200D4B900030200BE
:100023005DE4900F00780C79018002F0A3D8FCD92D
:10003300FA900F0BAA82AB839000D7786179018085
:1000430015E493A3AC82AD838A828B83F0A3AA8247
:10005300AB838C828D83D8E9D9E775829075830A47
:100063007400120085758216758300740012008572
:1000730075D0007581BF75100075110F75C700022B
:10008300001BC4C0F0F5F0E5C75430C4C0E0E5C7B9
:1000930054CF45F0F5C7D0F0E47385C7F053F0CFE4
:1000A300D0E0C445F0F5C722D083D082E5C7C4545D
:1000B30003C0E0E493C0E0740193C0E0740293C40E
:1000C3005430C0F0F5F0E5C754CF45F0D0F0F5C794
:1000D30022790122303132333435363738394142CF
:1000E3004344454654686520436172642049442073
:1000F30069733A20000A004C454431B5C6B9D80D9E
:100103000A004C454431B5C6BFAA0D0A0052464900
:1001130044CAE4C8EBD6B8C1EED3D0CEF3A3ACC780
:10012300EBD6D8D0C2CAE4C8EBA3A1A3A10D0A00A1
:10013300303030011200AB1503001200AB44030052
:100143001200AB9203001200ABDF03001200ABFFFF
:1001530003001200AB2104001200AB4304001200A1
:10016300AB6604001200AB8404001200ABED040084
:100173001200AB4005001200AB3007001200ABD2F7
:1001830007001200AB930B001200ABB00B00120080
:10019300ABCB08001200AB1609001200AB25090017
:1001A300CAC0E0E6F0A308DAFAD0E0FA22CAC0E057
:1001B300E0A3C582CCC582C583CDC583F0A3C58228
:1001C300CCC582C583CDC583DAE6D0E0CA2225102B
:1001D30010AF08F510400215118008F51040021504
:1001E30011D2AF22C0D0251010AF08F51050020570
:1001F300118008F51050020511D2AFD0D02225107E
:10020300F58210AF08F510400215118008F5104073
:10021300021511D2AF851183222510F582E4351121
:10022300F58322C0E0E8C0E0E58124FCF8E6A2E71C
:10023300D0E0F8D0E0222510C582C0E0E51134FFFC
:10024300C583C0E0E510C3958224F810AF08858309
:10025300118582108008858311858210D2AFCEF07C
:10026300A3E520F0A37808E608F0A3DEFAEFF0A3F5
:10027300E58124FAF8E608F0A3E608F0A3E608F01F
:10028300A30808E608F0A3E608F0A315811581D0BA
:10029300E0FED0E0F8158115811581E8C0E0EEC0DD
:1002A300E022851183851082E0A3FEE0A3F5207888
:1002B30008E0A3F608DFFAE0A3FFE0A3C0E0E0A3B1
:1002C300C0E0E0A3C0E0E0A3C0E0E0A3C0E010AF63
:1002D300088582108583118008858210858311D259
:1002E300AFD083D08202009D74028000C0E0F4048A
:1002F300120201D0E01201A322C0E0C0D0C082C02C
:1003030083C28BE5C1900F08F0D083D082D0D0D0C8
:10031300E0327C007D008019E82401F8E93400F91B
:10032300C3E89420E9940040EFEC2401FCED340091
:10033300FDC3EC9AED9B50067800790080E2020041
:100343009D74F712023989087E007F008029C286D6
:100353007A037B00120137C2877A017B00120137CF
:10036300D2877A037B00120137E508C333F508EE21
:100373002401FEEF3400FFC3EE9408EF9400500A0B
:10038300E508A2E750C8D28680C67F010202A574A1
:10039300F71202397E007F008032E508C333F50887
:1003A300C2877A037B00120137A2855007D3E50881
:1003B30092E0F5087A027B00120137D2877A037B39
:1003C30000120137EE2401FEEF3400FFC3EE940860
:1003D300EF940040C5A9087F010202A574F7120239
:1003E30039E9FF7E00C2A0C3334480F912013D12F4
:1003F3000143E9FED2A0F97F010202A574F71202BC
:1004030039E9FFEAFEEFC333FF747E5FF9C2A0123E
:10041300013DEEF912013DD2A07F010202A574F75E
:10042300120239E9FEEAFF750800EEF9120149E903
:10043300F508E5084FFAEEF912014F7F010202A514
:1004430074F7120239E9FEEAFF750800EEF91201AA
:1004530049E9F508EFF45508FAEEF912014F7F0167
:100463000202A5C082C0837914120149E9F874031A
:100473005870077A037914120155D083D082020091
:100483009DC082C083D2847A017B00120137C2846B
:100493007A017B00120137D2847A017B0012013783
:1004A3007A0F790112014F7901120149E9F8A2E4A7
:1004B30040F57A0A7B001201377A3D791112014F18
:1004C3007A1E792D12014F7A00792C12014F7A8D01
:1004D300792A12014F7A3E792B12014F7A4079150E
:1004E30012014FD083D08202009D74F7120239E9C2
:1004F300FE74416E70427A08790812015B7A3D7985
:100503001112014F7A86791712014F7A7F792612D9
:10051300014F7A1E792D12014F7A00792C12014F67
:100523007A8D792A12014F7A3E792B12014F7A0282
:100533007B001201371201617F010202A574F012E0
:10054300023974FE1201D1851082851183EAF0A36A
:10055300EBF089088C0F7509BB750C00750E00E56F
:100563000824F4600C24FE700E750C12750E1080B6
:1005730006750C77750E307480450CFA79021201FA
:100583004F7A80790412015B7A00790112014F7A64
:1005930080790A1201557E007F00801F85108285B5
:1005A3001183E02EF8A3E03F8882F583E0FA79090E
:1005B30012014FEE2401FEEF3400FF850F0A750B85
:1005C30000C3EE950AEF950B40D2AA0879011201F8
:1005D3004F740C650870077A80790D1201557EE817
:1005E3007F037904120149E9F50DEE24FFFEEF3490
:1005F300FFFFEE4F600CE50DA2E04006E50D550E42
:1006030060E07A80790D12015BEE4F7003020716EA
:100613007906120149E9541B600302071375092681
:10062300E50CA2E0C0D0E50DA2E092F0120226157F
:100633008182F050037509CC740C650860030207CE
:1006430016790A120149E9F50D790C120149E954A9
:1006530007FAEA6046850D0A750B00E50A24FFF8E0
:10066300E50B34FFF9E875F008A4C8ABF075F000AA
:10067300A42BFB75F008E9A42BF98A0A750B00E893
:10068300250AF8E9350BF9741412021CE0FAA3E009
:10069300F5838A82E8F0A3E9F0802DE50DA80D79B2
:1006A30000E875F008A4C8AAF075F000A42AFA754A
:1006B300F008E9A42AF9741412021CE0FAA3E0F585
:1006C300838A82E8F0A3E9F0E50D7003750D01E577
:1006D3000DC394134003750D127E007F00850D0A30
:1006E300750B00C3EE950AEF950B5027790912019C
:1006F30049E9C0E0741212021CE02EF8A3E03F881F
:1007030082F583D0E0F0EE2401FEEF3400FF80CDCC
:100713007509BB7A80790C1201557A0079011201AF
:100723004FA90974021201E77F080202A574F512AA
:10073300023974EC1201D1890AEAFEEBFF7A0879D7
:100743000812015B7A07790D12014F7A03791412AB
:100753000155E50A740212021CE50AF08510828530
:10076300118385820885830978081202EB740412C9
:10077300021C85820885830978081202EB7C0174C8
:100783000612021CAA82AB83790C12017374041241
:1007930001E7E9F9742669702A851082851183E0DF
:1007A30064107004A3E064007019740212021CE068
:1007B3008E828F83F0740312021CE08E828F83A3D8
:1007C300F0800279BB74141201E77F030202A5745F
:1007D300F212023974EC1201D1EAFEEBFF750A0042
:1007E3007A08790812015B7A00790D12014F7A8039
:1007F300790E12015B740212021C7493F0740312DB
:10080300021C7420F08510828511838582088583FC
:100813000978081202EB740412021C85820885838E
:100823000978081202EB7C02740612021CAA82AB3E
:1008330083790C12017374041201E7E9F50B742632
:10084300650B7071750C008049850C08750900747F
:100853000212021CE5822508F582E5833509F5833A
:10086300E0C0E0850C08750900EE2508F582EF3538
:1008730009F583D0E0F0850C0875090074021202B3
:100883001CE5822508F582E5833509F583E0620AD4
:10089300050CE50CC3940440B0750D0074021202FC
:1008A3001CE582250CF582E583350DF583E0650AA9
:1008B3006003750BBB7A80790E120155A90B741472
:1008C3001201E77F060202A5C082C08353C6BFE5BB
:1008D3009EA2E640FA53C6B812018543FF0143F7CF
:1008E3000153F5FE43FD80438F8053F37F43FD4067
:1008F300438F4053F3BF43FD20438F2053F3DF5314
:10090300FDEF538FEF53F3EFD287D2A0D083D08282
:1009130002009D75FE0375FD10D290D284D2910220
:10092300009D74F612023974E41201D11201677E3C
:10093300AA020A1A75F0108B0875090085108285C2
:100943001183E5822508F582E5833509F583E08483
:10095300F87900740C12021CE58228F582E58339CC
:10096300F583E0C0E0EBF87900E875F002A4C8AACB
:10097300F075F000A42AFA75F002E9A42AF97404C8
:1009830012021CE58228F582E58339F583D0E0F075
:100993008B08750900851082851183E5822508F58A
:1009A30082E5833509F583E075F01084E5F0A8F05E
:1009B3007900740C12021CE58228F582E58339F56F
:1009C30083E0C0E0EBF87900E875F002A4C8AAF070
:1009D30075F000A42AFA75F002E9A42AF974041246
:1009E300021CE58228F582E58339F583A3D0E0F084
:1009F3000BEBC3940450030209377C087D00740495
:100A030012021CAA82AB8312018B7C017D007A2C1B
:100A13007B0F12018B7E0074AA6E7067900F00C06B
:100A230082C083740412021CAC82AD83D083D08253
:100A330074081201B0900F0BC082C083740C1202B1
:100A43001CAC82AD83D083D08274101201B08510A8
:100A530082851183AA82AB837952120179E9F874F2
:100A6300266860B3851082851183AA82AB83120145
:100A73007FE9FE7C107D007A1B7B0F12018B7B00CC
:100A83000209F4741C1201E77F020202A51201910C
:100A9300120197794112016D802588087509007448
:100AA300672508F582740F3509F5837420F008E88B
:100AB300C3940340E5900F097400F0A37400F09011
:100AC3000F6AE064017062900F08E0605C900F08A9
:100AD300E064236034900F09C3E09403A3E094001F
:100AE3005027900F08E0C0E0900F09E02467F8A3B7
:100AF300E0340FF988828983D0E0F0900F09E02475
:100B030001F0A3E03400F08006900F6A7403F090C4
:100B13000F09E064037004A3E064007006900F6A99
:100B23007403F0900F087400F0900F6AE064037090
:100B33008E900F67E06452702C900F68E064307001
:100B43000FD2907C087D007A2E7B0F12018B8015CB
:100B5300900F68E06431700DC2907C087D007A3993
:100B63007B0F12018B900F67E064497018900F6838
:100B7300E06443700512019D800B7C147D007A4470
:100B83007B0F12018B900F6A7401F07800020AB296
:100B930075F10075F30C53FF3F43868043C508434B
:100BA300C23BD2E943864043A88402009D74F712F6
:100BB300023978007900801E8A828B83E0F5C18A2E
:100BC300828B83A3AA82AB83A2E950FCC2E9E82407
:100BD30001F8E93400F9C3E89CE99DA2D265D0335A
:070BE30040D67F010202A5CC
:040000050000007384
:00000001FF
